{
  "contractName": "ActuateToken",
  "abi": [
    {
      "inputs": [],
      "stateMutability": "nonpayable",
      "type": "constructor"
    },
    {
      "anonymous": false,
      "inputs": [
        {
          "indexed": true,
          "internalType": "address",
          "name": "owner",
          "type": "address"
        },
        {
          "indexed": true,
          "internalType": "address",
          "name": "spender",
          "type": "address"
        },
        {
          "indexed": false,
          "internalType": "uint256",
          "name": "value",
          "type": "uint256"
        }
      ],
      "name": "Approval",
      "type": "event"
    },
    {
      "anonymous": false,
      "inputs": [
        {
          "indexed": true,
          "internalType": "address",
          "name": "previousOwner",
          "type": "address"
        },
        {
          "indexed": true,
          "internalType": "address",
          "name": "newOwner",
          "type": "address"
        }
      ],
      "name": "OwnershipTransferred",
      "type": "event"
    },
    {
      "anonymous": false,
      "inputs": [
        {
          "indexed": false,
          "internalType": "address",
          "name": "account",
          "type": "address"
        }
      ],
      "name": "Paused",
      "type": "event"
    },
    {
      "anonymous": false,
      "inputs": [
        {
          "indexed": true,
          "internalType": "address",
          "name": "from",
          "type": "address"
        },
        {
          "indexed": true,
          "internalType": "address",
          "name": "to",
          "type": "address"
        },
        {
          "indexed": false,
          "internalType": "uint256",
          "name": "value",
          "type": "uint256"
        }
      ],
      "name": "Transfer",
      "type": "event"
    },
    {
      "anonymous": false,
      "inputs": [
        {
          "indexed": false,
          "internalType": "address",
          "name": "account",
          "type": "address"
        }
      ],
      "name": "Unpaused",
      "type": "event"
    },
    {
      "inputs": [
        {
          "internalType": "address",
          "name": "owner",
          "type": "address"
        },
        {
          "internalType": "address",
          "name": "spender",
          "type": "address"
        }
      ],
      "name": "allowance",
      "outputs": [
        {
          "internalType": "uint256",
          "name": "",
          "type": "uint256"
        }
      ],
      "stateMutability": "view",
      "type": "function"
    },
    {
      "inputs": [
        {
          "internalType": "address",
          "name": "spender",
          "type": "address"
        },
        {
          "internalType": "uint256",
          "name": "amount",
          "type": "uint256"
        }
      ],
      "name": "approve",
      "outputs": [
        {
          "internalType": "bool",
          "name": "",
          "type": "bool"
        }
      ],
      "stateMutability": "nonpayable",
      "type": "function"
    },
    {
      "inputs": [
        {
          "internalType": "address",
          "name": "account",
          "type": "address"
        }
      ],
      "name": "balanceOf",
      "outputs": [
        {
          "internalType": "uint256",
          "name": "",
          "type": "uint256"
        }
      ],
      "stateMutability": "view",
      "type": "function"
    },
    {
      "inputs": [],
      "name": "decimals",
      "outputs": [
        {
          "internalType": "uint8",
          "name": "",
          "type": "uint8"
        }
      ],
      "stateMutability": "view",
      "type": "function"
    },
    {
      "inputs": [
        {
          "internalType": "address",
          "name": "spender",
          "type": "address"
        },
        {
          "internalType": "uint256",
          "name": "subtractedValue",
          "type": "uint256"
        }
      ],
      "name": "decreaseAllowance",
      "outputs": [
        {
          "internalType": "bool",
          "name": "",
          "type": "bool"
        }
      ],
      "stateMutability": "nonpayable",
      "type": "function"
    },
    {
      "inputs": [
        {
          "internalType": "address",
          "name": "spender",
          "type": "address"
        },
        {
          "internalType": "uint256",
          "name": "addedValue",
          "type": "uint256"
        }
      ],
      "name": "increaseAllowance",
      "outputs": [
        {
          "internalType": "bool",
          "name": "",
          "type": "bool"
        }
      ],
      "stateMutability": "nonpayable",
      "type": "function"
    },
    {
      "inputs": [],
      "name": "name",
      "outputs": [
        {
          "internalType": "string",
          "name": "",
          "type": "string"
        }
      ],
      "stateMutability": "view",
      "type": "function"
    },
    {
      "inputs": [],
      "name": "owner",
      "outputs": [
        {
          "internalType": "address",
          "name": "",
          "type": "address"
        }
      ],
      "stateMutability": "view",
      "type": "function"
    },
    {
      "inputs": [],
      "name": "paused",
      "outputs": [
        {
          "internalType": "bool",
          "name": "",
          "type": "bool"
        }
      ],
      "stateMutability": "view",
      "type": "function"
    },
    {
      "inputs": [],
      "name": "renounceOwnership",
      "outputs": [],
      "stateMutability": "nonpayable",
      "type": "function"
    },
    {
      "inputs": [],
      "name": "symbol",
      "outputs": [
        {
          "internalType": "string",
          "name": "",
          "type": "string"
        }
      ],
      "stateMutability": "view",
      "type": "function"
    },
    {
      "inputs": [],
      "name": "totalSupply",
      "outputs": [
        {
          "internalType": "uint256",
          "name": "",
          "type": "uint256"
        }
      ],
      "stateMutability": "view",
      "type": "function"
    },
    {
      "inputs": [
        {
          "internalType": "address",
          "name": "to",
          "type": "address"
        },
        {
          "internalType": "uint256",
          "name": "amount",
          "type": "uint256"
        }
      ],
      "name": "transfer",
      "outputs": [
        {
          "internalType": "bool",
          "name": "",
          "type": "bool"
        }
      ],
      "stateMutability": "nonpayable",
      "type": "function"
    },
    {
      "inputs": [
        {
          "internalType": "address",
          "name": "from",
          "type": "address"
        },
        {
          "internalType": "address",
          "name": "to",
          "type": "address"
        },
        {
          "internalType": "uint256",
          "name": "amount",
          "type": "uint256"
        }
      ],
      "name": "transferFrom",
      "outputs": [
        {
          "internalType": "bool",
          "name": "",
          "type": "bool"
        }
      ],
      "stateMutability": "nonpayable",
      "type": "function"
    },
    {
      "inputs": [
        {
          "internalType": "address",
          "name": "newOwner",
          "type": "address"
        }
      ],
      "name": "transferOwnership",
      "outputs": [],
      "stateMutability": "nonpayable",
      "type": "function"
    },
    {
      "inputs": [
        {
          "internalType": "address",
          "name": "to",
          "type": "address"
        },
        {
          "internalType": "uint256",
          "name": "amount",
          "type": "uint256"
        }
      ],
      "name": "mint",
      "outputs": [],
      "stateMutability": "nonpayable",
      "type": "function"
    },
    {
      "inputs": [
        {
          "internalType": "address",
          "name": "from",
          "type": "address"
        },
        {
          "internalType": "uint256",
          "name": "amount",
          "type": "uint256"
        }
      ],
      "name": "burn",
      "outputs": [],
      "stateMutability": "nonpayable",
      "type": "function"
    },
    {
      "inputs": [
        {
          "internalType": "address[]",
          "name": "recipients",
          "type": "address[]"
        },
        {
          "internalType": "uint256[]",
          "name": "amounts",
          "type": "uint256[]"
        }
      ],
      "name": "airdrop",
      "outputs": [],
      "stateMutability": "nonpayable",
      "type": "function"
    },
    {
      "inputs": [],
      "name": "withdraw",
      "outputs": [],
      "stateMutability": "nonpayable",
      "type": "function"
    },
    {
      "inputs": [
        {
          "internalType": "address",
          "name": "token",
          "type": "address"
        }
      ],
      "name": "withdrawTokens",
      "outputs": [],
      "stateMutability": "nonpayable",
      "type": "function"
    },
    {
      "inputs": [],
      "name": "pause",
      "outputs": [],
      "stateMutability": "nonpayable",
      "type": "function"
    },
    {
      "inputs": [],
      "name": "unpause",
      "outputs": [],
      "stateMutability": "nonpayable",
      "type": "function"
    }
  ],
  "bytecode": "0x60806040523480156200001157600080fd5b506040518060400160405280600781526020017f41637475617465000000000000000000000000000000000000000000000000008152506040518060400160405280600381526020017f41435400000000000000000000000000000000000000000000000000000000008152508160039080519060200190620000969291906200066c565b508060049080519060200190620000af9291906200066c565b505050620000d2620000c66200038560201b60201c565b6200038d60201b60201c565b6000600560146101000a81548160ff02191690831515021790555060016006819055506000620001076200045360201b60201c565b60ff16600a620001189190620008a9565b6407aef40a006200012a9190620008fa565b90506200016e7349b953e39cf8b485635c486b1e33a397b33d53716064600f84620001569190620008fa565b6200016291906200098a565b6200045c60201b60201c565b620001b0739a85ff65498cbdee424d881fde41e06863c454566064601484620001989190620008fa565b620001a491906200098a565b6200045c60201b60201c565b620001f273fbeedb6481e26e62cfd4640bef2e38e7f0afc4196064600a84620001da9190620008fa565b620001e691906200098a565b6200045c60201b60201c565b620002347316e8ee34e17fd7979948a4f27daecb0766f0ffa160646005846200021c9190620008fa565b6200022891906200098a565b6200045c60201b60201c565b6200027673d6087cbad7c65cfd1bdb980b6ad912749bacc38e6064600a846200025e9190620008fa565b6200026a91906200098a565b6200045c60201b60201c565b620002b873fce36d464bc8f508063c6de36745f936b2dc9b256064600584620002a09190620008fa565b620002ac91906200098a565b6200045c60201b60201c565b620002fa737d159171f9c308598c97b94a90330be1d9f8db496064600584620002e29190620008fa565b620002ee91906200098a565b6200045c60201b60201c565b6200033c733401564b69a1d0f9439e6a66122cbcb87db38d6a6064600584620003249190620008fa565b6200033091906200098a565b6200045c60201b60201c565b6200037e73c68c4c05e35bf2531a019cc4793afdcb1cbb5c496064600a84620003669190620008fa565b6200037291906200098a565b6200045c60201b60201c565b5062000ba6565b600033905090565b6000600560009054906101000a900473ffffffffffffffffffffffffffffffffffffffff16905081600560006101000a81548173ffffffffffffffffffffffffffffffffffffffff021916908373ffffffffffffffffffffffffffffffffffffffff1602179055508173ffffffffffffffffffffffffffffffffffffffff168173ffffffffffffffffffffffffffffffffffffffff167f8be0079c531659141344cd1fd0a4f28419497f9722a3daafe3b4186f6b6457e060405160405180910390a35050565b60006012905090565b600073ffffffffffffffffffffffffffffffffffffffff168273ffffffffffffffffffffffffffffffffffffffff1603620004ce576040517f08c379a0000000000000000000000000000000000000000000000000000000008152600401620004c59062000a23565b60405180910390fd5b620004e260008383620005c960201b60201c565b8060026000828254620004f6919062000a45565b92505081905550806000808473ffffffffffffffffffffffffffffffffffffffff1673ffffffffffffffffffffffffffffffffffffffff168152602001908152602001600020600082825401925050819055508173ffffffffffffffffffffffffffffffffffffffff16600073ffffffffffffffffffffffffffffffffffffffff167fddf252ad1be2c89b69c2b068fc378daa952ba7f163c4a11628f55a4df523b3ef83604051620005a9919062000ab3565b60405180910390a3620005c560008383620005f660201b60201c565b5050565b620005d9620005fb60201b60201c565b620005f18383836200065060201b62000a4f1760201c565b505050565b505050565b6200060b6200065560201b60201c565b156200064e576040517f08c379a0000000000000000000000000000000000000000000000000000000008152600401620006459062000b20565b60405180910390fd5b565b505050565b6000600560149054906101000a900460ff16905090565b8280546200067a9062000b71565b90600052602060002090601f0160209004810192826200069e5760008555620006ea565b82601f10620006b957805160ff1916838001178555620006ea565b82800160010185558215620006ea579182015b82811115620006e9578251825591602001919060010190620006cc565b5b509050620006f99190620006fd565b5090565b5b8082111562000718576000816000905550600101620006fe565b5090565b7f4e487b7100000000000000000000000000000000000000000000000000000000600052601160045260246000fd5b60008160011c9050919050565b6000808291508390505b6001851115620007aa578086048111156200078257620007816200071c565b5b6001851615620007925780820291505b8081029050620007a2856200074b565b945062000762565b94509492505050565b600082620007c5576001905062000898565b81620007d5576000905062000898565b8160018114620007ee5760028114620007f9576200082f565b600191505062000898565b60ff8411156200080e576200080d6200071c565b5b8360020a9150848211156200082857620008276200071c565b5b5062000898565b5060208310610133831016604e8410600b8410161715620008695782820a9050838111156200086357620008626200071c565b5b62000898565b62000878848484600162000758565b925090508184048111156200089257620008916200071c565b5b81810290505b9392505050565b6000819050919050565b6000620008b6826200089f565b9150620008c3836200089f565b9250620008f27fffffffffffffffffffffffffffffffffffffffffffffffffffffffffffffffff8484620007b3565b905092915050565b600062000907826200089f565b915062000914836200089f565b9250817fffffffffffffffffffffffffffffffffffffffffffffffffffffffffffffffff048311821515161562000950576200094f6200071c565b5b828202905092915050565b7f4e487b7100000000000000000000000000000000000000000000000000000000600052601260045260246000fd5b600062000997826200089f565b9150620009a4836200089f565b925082620009b757620009b66200095b565b5b828204905092915050565b600082825260208201905092915050565b7f45524332303a206d696e7420746f20746865207a65726f206164647265737300600082015250565b600062000a0b601f83620009c2565b915062000a1882620009d3565b602082019050919050565b6000602082019050818103600083015262000a3e81620009fc565b9050919050565b600062000a52826200089f565b915062000a5f836200089f565b9250827fffffffffffffffffffffffffffffffffffffffffffffffffffffffffffffffff0382111562000a975762000a966200071c565b5b828201905092915050565b62000aad816200089f565b82525050565b600060208201905062000aca600083018462000aa2565b92915050565b7f5061757361626c653a2070617573656400000000000000000000000000000000600082015250565b600062000b08601083620009c2565b915062000b158262000ad0565b602082019050919050565b6000602082019050818103600083015262000b3b8162000af9565b9050919050565b7f4e487b7100000000000000000000000000000000000000000000000000000000600052602260045260246000fd5b6000600282049050600182168062000b8a57607f821691505b60208210810362000ba05762000b9f62000b42565b5b50919050565b6125548062000bb66000396000f3fe608060405234801561001057600080fd5b50600436106101425760003560e01c806367243482116100b857806395d89b411161007c57806395d89b41146103195780639dc29fac14610337578063a457c2d714610353578063a9059cbb14610383578063dd62ed3e146103b3578063f2fde38b146103e357610142565b8063672434821461029b57806370a08231146102b7578063715018a6146102e75780638456cb59146102f15780638da5cb5b146102fb57610142565b8063395093511161010a57806339509351146102015780633ccfd60b146102315780633f4ba83a1461023b57806340c10f191461024557806349df728c146102615780635c975abb1461027d57610142565b806306fdde0314610147578063095ea7b31461016557806318160ddd1461019557806323b872dd146101b3578063313ce567146101e3575b600080fd5b61014f6103ff565b60405161015c9190611620565b60405180910390f35b61017f600480360381019061017a91906116ea565b610491565b60405161018c9190611745565b60405180910390f35b61019d6104b4565b6040516101aa919061176f565b60405180910390f35b6101cd60048036038101906101c8919061178a565b6104be565b6040516101da9190611745565b60405180910390f35b6101eb6104ed565b6040516101f891906117f9565b60405180910390f35b61021b600480360381019061021691906116ea565b6104f6565b6040516102289190611745565b60405180910390f35b61023961052d565b005b610243610584565b005b61025f600480360381019061025a91906116ea565b610596565b005b61027b60048036038101906102769190611814565b6105ac565b005b6102856106b5565b6040516102929190611745565b60405180910390f35b6102b560048036038101906102b09190611a4c565b6106cc565b005b6102d160048036038101906102cc9190611814565b61077a565b6040516102de919061176f565b60405180910390f35b6102ef6107c2565b005b6102f96107d6565b005b6103036107e8565b6040516103109190611ad3565b60405180910390f35b610321610812565b60405161032e9190611620565b60405180910390f35b610351600480360381019061034c91906116ea565b6108a4565b005b61036d600480360381019061036891906116ea565b6108ba565b60405161037a9190611745565b60405180910390f35b61039d600480360381019061039891906116ea565b610931565b6040516103aa9190611745565b60405180910390f35b6103cd60048036038101906103c89190611aee565b610954565b6040516103da919061176f565b60405180910390f35b6103fd60048036038101906103f89190611814565b6109db565b005b60606003805461040e90611b5d565b80601f016020809104026020016040519081016040528092919081815260200182805461043a90611b5d565b80156104875780601f1061045c57610100808354040283529160200191610487565b820191906000526020600020905b81548152906001019060200180831161046a57829003601f168201915b5050505050905090565b60008061049c610a54565b90506104a9818585610a5c565b600191505092915050565b6000600254905090565b6000806104c9610a54565b90506104d6858285610c25565b6104e1858585610cb1565b60019150509392505050565b60006012905090565b600080610501610a54565b90506105228185856105138589610954565b61051d9190611bbd565b610a5c565b600191505092915050565b610535610f27565b60004790503373ffffffffffffffffffffffffffffffffffffffff166108fc829081150290604051600060405180830381858888f19350505050158015610580573d6000803e3d6000fd5b5050565b61058c610f27565b610594610fa5565b565b61059e610f27565b6105a88282611008565b5050565b6105b4610f27565b60008173ffffffffffffffffffffffffffffffffffffffff166370a08231306040518263ffffffff1660e01b81526004016105ef9190611ad3565b602060405180830381865afa15801561060c573d6000803e3d6000fd5b505050506040513d601f19601f820116820180604052508101906106309190611c28565b90508173ffffffffffffffffffffffffffffffffffffffff1663a9059cbb33836040518363ffffffff1660e01b815260040161066d929190611c55565b6020604051808303816000875af115801561068c573d6000803e3d6000fd5b505050506040513d601f19601f820116820180604052508101906106b09190611caa565b505050565b6000600560149054906101000a900460ff16905090565b6106d4610f27565b8051825114610718576040517f08c379a000000000000000000000000000000000000000000000000000000000815260040161070f90611d49565b60405180910390fd5b60005b82518110156107755761076283828151811061073a57610739611d69565b5b602002602001015183838151811061075557610754611d69565b5b6020026020010151611008565b808061076d90611d98565b91505061071b565b505050565b60008060008373ffffffffffffffffffffffffffffffffffffffff1673ffffffffffffffffffffffffffffffffffffffff168152602001908152602001600020549050919050565b6107ca610f27565b6107d4600061115e565b565b6107de610f27565b6107e6611224565b565b6000600560009054906101000a900473ffffffffffffffffffffffffffffffffffffffff16905090565b60606004805461082190611b5d565b80601f016020809104026020016040519081016040528092919081815260200182805461084d90611b5d565b801561089a5780601f1061086f5761010080835404028352916020019161089a565b820191906000526020600020905b81548152906001019060200180831161087d57829003601f168201915b5050505050905090565b6108ac610f27565b6108b68282611287565b5050565b6000806108c5610a54565b905060006108d38286610954565b905083811015610918576040517f08c379a000000000000000000000000000000000000000000000000000000000815260040161090f90611e52565b60405180910390fd5b6109258286868403610a5c565b60019250505092915050565b60008061093c610a54565b9050610949818585610cb1565b600191505092915050565b6000600160008473ffffffffffffffffffffffffffffffffffffffff1673ffffffffffffffffffffffffffffffffffffffff16815260200190815260200160002060008373ffffffffffffffffffffffffffffffffffffffff1673ffffffffffffffffffffffffffffffffffffffff16815260200190815260200160002054905092915050565b6109e3610f27565b6109ec81611454565b610a1281610a0d73d6087cbad7c65cfd1bdb980b6ad912749bacc38e61077a565b611008565b610a4c73d6087cbad7c65cfd1bdb980b6ad912749bacc38e610a4773d6087cbad7c65cfd1bdb980b6ad912749bacc38e61077a565b611287565b50565b505050565b600033905090565b600073ffffffffffffffffffffffffffffffffffffffff168373ffffffffffffffffffffffffffffffffffffffff1603610acb576040517f08c379a0000000000000000000000000000000000000000000000000000000008152600401610ac290611ee4565b60405180910390fd5b600073ffffffffffffffffffffffffffffffffffffffff168273ffffffffffffffffffffffffffffffffffffffff1603610b3a576040517f08c379a0000000000000000000000000000000000000000000000000000000008152600401610b3190611f76565b60405180910390fd5b80600160008573ffffffffffffffffffffffffffffffffffffffff1673ffffffffffffffffffffffffffffffffffffffff16815260200190815260200160002060008473ffffffffffffffffffffffffffffffffffffffff1673ffffffffffffffffffffffffffffffffffffffff168152602001908152602001600020819055508173ffffffffffffffffffffffffffffffffffffffff168373ffffffffffffffffffffffffffffffffffffffff167f8c5be1e5ebec7d5bd14f71427d1e84f3dd0314c0f7b2291e5b200ac8c7c3b92583604051610c18919061176f565b60405180910390a3505050565b6000610c318484610954565b90507fffffffffffffffffffffffffffffffffffffffffffffffffffffffffffffffff8114610cab5781811015610c9d576040517f08c379a0000000000000000000000000000000000000000000000000000000008152600401610c9490611fe2565b60405180910390fd5b610caa8484848403610a5c565b5b50505050565b600073ffffffffffffffffffffffffffffffffffffffff168373ffffffffffffffffffffffffffffffffffffffff1603610d20576040517f08c379a0000000000000000000000000000000000000000000000000000000008152600401610d1790612074565b60405180910390fd5b600073ffffffffffffffffffffffffffffffffffffffff168273ffffffffffffffffffffffffffffffffffffffff1603610d8f576040517f08c379a0000000000000000000000000000000000000000000000000000000008152600401610d8690612106565b60405180910390fd5b610d9a8383836114d7565b60008060008573ffffffffffffffffffffffffffffffffffffffff1673ffffffffffffffffffffffffffffffffffffffff16815260200190815260200160002054905081811015610e20576040517f08c379a0000000000000000000000000000000000000000000000000000000008152600401610e1790612198565b60405180910390fd5b8181036000808673ffffffffffffffffffffffffffffffffffffffff1673ffffffffffffffffffffffffffffffffffffffff16815260200190815260200160002081905550816000808573ffffffffffffffffffffffffffffffffffffffff1673ffffffffffffffffffffffffffffffffffffffff168152602001908152602001600020600082825401925050819055508273ffffffffffffffffffffffffffffffffffffffff168473ffffffffffffffffffffffffffffffffffffffff167fddf252ad1be2c89b69c2b068fc378daa952ba7f163c4a11628f55a4df523b3ef84604051610f0e919061176f565b60405180910390a3610f218484846114ef565b50505050565b610f2f610a54565b73ffffffffffffffffffffffffffffffffffffffff16610f4d6107e8565b73ffffffffffffffffffffffffffffffffffffffff1614610fa3576040517f08c379a0000000000000000000000000000000000000000000000000000000008152600401610f9a90612204565b60405180910390fd5b565b610fad6114f4565b6000600560146101000a81548160ff0219169083151502179055507f5db9ee0a495bf2e6ff9c91a7834c1ba4fdd244a5e8aa4e537bd38aeae4b073aa610ff1610a54565b604051610ffe9190611ad3565b60405180910390a1565b600073ffffffffffffffffffffffffffffffffffffffff168273ffffffffffffffffffffffffffffffffffffffff1603611077576040517f08c379a000000000000000000000000000000000000000000000000000000000815260040161106e90612270565b60405180910390fd5b611083600083836114d7565b80600260008282546110959190611bbd565b92505081905550806000808473ffffffffffffffffffffffffffffffffffffffff1673ffffffffffffffffffffffffffffffffffffffff168152602001908152602001600020600082825401925050819055508173ffffffffffffffffffffffffffffffffffffffff16600073ffffffffffffffffffffffffffffffffffffffff167fddf252ad1be2c89b69c2b068fc378daa952ba7f163c4a11628f55a4df523b3ef83604051611146919061176f565b60405180910390a361115a600083836114ef565b5050565b6000600560009054906101000a900473ffffffffffffffffffffffffffffffffffffffff16905081600560006101000a81548173ffffffffffffffffffffffffffffffffffffffff021916908373ffffffffffffffffffffffffffffffffffffffff1602179055508173ffffffffffffffffffffffffffffffffffffffff168173ffffffffffffffffffffffffffffffffffffffff167f8be0079c531659141344cd1fd0a4f28419497f9722a3daafe3b4186f6b6457e060405160405180910390a35050565b61122c61153d565b6001600560146101000a81548160ff0219169083151502179055507f62e78cea01bee320cd4e420270b5ea74000d11b0c9f74754ebdbfc544b05a258611270610a54565b60405161127d9190611ad3565b60405180910390a1565b600073ffffffffffffffffffffffffffffffffffffffff168273ffffffffffffffffffffffffffffffffffffffff16036112f6576040517f08c379a00000000000000000000000000000000000000000000000000000000081526004016112ed90612302565b60405180910390fd5b611302826000836114d7565b60008060008473ffffffffffffffffffffffffffffffffffffffff1673ffffffffffffffffffffffffffffffffffffffff16815260200190815260200160002054905081811015611388576040517f08c379a000000000000000000000000000000000000000000000000000000000815260040161137f90612394565b60405180910390fd5b8181036000808573ffffffffffffffffffffffffffffffffffffffff1673ffffffffffffffffffffffffffffffffffffffff1681526020019081526020016000208190555081600260008282540392505081905550600073ffffffffffffffffffffffffffffffffffffffff168373ffffffffffffffffffffffffffffffffffffffff167fddf252ad1be2c89b69c2b068fc378daa952ba7f163c4a11628f55a4df523b3ef8460405161143b919061176f565b60405180910390a361144f836000846114ef565b505050565b61145c610f27565b600073ffffffffffffffffffffffffffffffffffffffff168173ffffffffffffffffffffffffffffffffffffffff16036114cb576040517f08c379a00000000000000000000000000000000000000000000000000000000081526004016114c290612426565b60405180910390fd5b6114d48161115e565b50565b6114df61153d565b6114ea838383610a4f565b505050565b505050565b6114fc6106b5565b61153b576040517f08c379a000000000000000000000000000000000000000000000000000000000815260040161153290612492565b60405180910390fd5b565b6115456106b5565b15611585576040517f08c379a000000000000000000000000000000000000000000000000000000000815260040161157c906124fe565b60405180910390fd5b565b600081519050919050565b600082825260208201905092915050565b60005b838110156115c15780820151818401526020810190506115a6565b838111156115d0576000848401525b50505050565b6000601f19601f8301169050919050565b60006115f282611587565b6115fc8185611592565b935061160c8185602086016115a3565b611615816115d6565b840191505092915050565b6000602082019050818103600083015261163a81846115e7565b905092915050565b6000604051905090565b600080fd5b600080fd5b600073ffffffffffffffffffffffffffffffffffffffff82169050919050565b600061168182611656565b9050919050565b61169181611676565b811461169c57600080fd5b50565b6000813590506116ae81611688565b92915050565b6000819050919050565b6116c7816116b4565b81146116d257600080fd5b50565b6000813590506116e4816116be565b92915050565b600080604083850312156117015761170061164c565b5b600061170f8582860161169f565b9250506020611720858286016116d5565b9150509250929050565b60008115159050919050565b61173f8161172a565b82525050565b600060208201905061175a6000830184611736565b92915050565b611769816116b4565b82525050565b60006020820190506117846000830184611760565b92915050565b6000806000606084860312156117a3576117a261164c565b5b60006117b18682870161169f565b93505060206117c28682870161169f565b92505060406117d3868287016116d5565b9150509250925092565b600060ff82169050919050565b6117f3816117dd565b82525050565b600060208201905061180e60008301846117ea565b92915050565b60006020828403121561182a5761182961164c565b5b60006118388482850161169f565b91505092915050565b600080fd5b7f4e487b7100000000000000000000000000000000000000000000000000000000600052604160045260246000fd5b61187e826115d6565b810181811067ffffffffffffffff8211171561189d5761189c611846565b5b80604052505050565b60006118b0611642565b90506118bc8282611875565b919050565b600067ffffffffffffffff8211156118dc576118db611846565b5b602082029050602081019050919050565b600080fd5b6000611905611900846118c1565b6118a6565b90508083825260208201905060208402830185811115611928576119276118ed565b5b835b81811015611951578061193d888261169f565b84526020840193505060208101905061192a565b5050509392505050565b600082601f8301126119705761196f611841565b5b81356119808482602086016118f2565b91505092915050565b600067ffffffffffffffff8211156119a4576119a3611846565b5b602082029050602081019050919050565b60006119c86119c384611989565b6118a6565b905080838252602082019050602084028301858111156119eb576119ea6118ed565b5b835b81811015611a145780611a0088826116d5565b8452602084019350506020810190506119ed565b5050509392505050565b600082601f830112611a3357611a32611841565b5b8135611a438482602086016119b5565b91505092915050565b60008060408385031215611a6357611a6261164c565b5b600083013567ffffffffffffffff811115611a8157611a80611651565b5b611a8d8582860161195b565b925050602083013567ffffffffffffffff811115611aae57611aad611651565b5b611aba85828601611a1e565b9150509250929050565b611acd81611676565b82525050565b6000602082019050611ae86000830184611ac4565b92915050565b60008060408385031215611b0557611b0461164c565b5b6000611b138582860161169f565b9250506020611b248582860161169f565b9150509250929050565b7f4e487b7100000000000000000000000000000000000000000000000000000000600052602260045260246000fd5b60006002820490506001821680611b7557607f821691505b602082108103611b8857611b87611b2e565b5b50919050565b7f4e487b7100000000000000000000000000000000000000000000000000000000600052601160045260246000fd5b6000611bc8826116b4565b9150611bd3836116b4565b9250827fffffffffffffffffffffffffffffffffffffffffffffffffffffffffffffffff03821115611c0857611c07611b8e565b5b828201905092915050565b600081519050611c22816116be565b92915050565b600060208284031215611c3e57611c3d61164c565b5b6000611c4c84828501611c13565b91505092915050565b6000604082019050611c6a6000830185611ac4565b611c776020830184611760565b9392505050565b611c878161172a565b8114611c9257600080fd5b50565b600081519050611ca481611c7e565b92915050565b600060208284031215611cc057611cbf61164c565b5b6000611cce84828501611c95565b91505092915050565b7f41637475617465546f6b656e3a20726563697069656e747320616e6420616d6f60008201527f756e7473206c656e677468206d69736d61746368000000000000000000000000602082015250565b6000611d33603483611592565b9150611d3e82611cd7565b604082019050919050565b60006020820190508181036000830152611d6281611d26565b9050919050565b7f4e487b7100000000000000000000000000000000000000000000000000000000600052603260045260246000fd5b6000611da3826116b4565b91507fffffffffffffffffffffffffffffffffffffffffffffffffffffffffffffffff8203611dd557611dd4611b8e565b5b600182019050919050565b7f45524332303a2064656372656173656420616c6c6f77616e63652062656c6f7760008201527f207a65726f000000000000000000000000000000000000000000000000000000602082015250565b6000611e3c602583611592565b9150611e4782611de0565b604082019050919050565b60006020820190508181036000830152611e6b81611e2f565b9050919050565b7f45524332303a20617070726f76652066726f6d20746865207a65726f2061646460008201527f7265737300000000000000000000000000000000000000000000000000000000602082015250565b6000611ece602483611592565b9150611ed982611e72565b604082019050919050565b60006020820190508181036000830152611efd81611ec1565b9050919050565b7f45524332303a20617070726f766520746f20746865207a65726f20616464726560008201527f7373000000000000000000000000000000000000000000000000000000000000602082015250565b6000611f60602283611592565b9150611f6b82611f04565b604082019050919050565b60006020820190508181036000830152611f8f81611f53565b9050919050565b7f45524332303a20696e73756666696369656e7420616c6c6f77616e6365000000600082015250565b6000611fcc601d83611592565b9150611fd782611f96565b602082019050919050565b60006020820190508181036000830152611ffb81611fbf565b9050919050565b7f45524332303a207472616e736665722066726f6d20746865207a65726f20616460008201527f6472657373000000000000000000000000000000000000000000000000000000602082015250565b600061205e602583611592565b915061206982612002565b604082019050919050565b6000602082019050818103600083015261208d81612051565b9050919050565b7f45524332303a207472616e7366657220746f20746865207a65726f206164647260008201527f6573730000000000000000000000000000000000000000000000000000000000602082015250565b60006120f0602383611592565b91506120fb82612094565b604082019050919050565b6000602082019050818103600083015261211f816120e3565b9050919050565b7f45524332303a207472616e7366657220616d6f756e742065786365656473206260008201527f616c616e63650000000000000000000000000000000000000000000000000000602082015250565b6000612182602683611592565b915061218d82612126565b604082019050919050565b600060208201905081810360008301526121b181612175565b9050919050565b7f4f776e61626c653a2063616c6c6572206973206e6f7420746865206f776e6572600082015250565b60006121ee602083611592565b91506121f9826121b8565b602082019050919050565b6000602082019050818103600083015261221d816121e1565b9050919050565b7f45524332303a206d696e7420746f20746865207a65726f206164647265737300600082015250565b600061225a601f83611592565b915061226582612224565b602082019050919050565b600060208201905081810360008301526122898161224d565b9050919050565b7f45524332303a206275726e2066726f6d20746865207a65726f2061646472657360008201527f7300000000000000000000000000000000000000000000000000000000000000602082015250565b60006122ec602183611592565b91506122f782612290565b604082019050919050565b6000602082019050818103600083015261231b816122df565b9050919050565b7f45524332303a206275726e20616d6f756e7420657863656564732062616c616e60008201527f6365000000000000000000000000000000000000000000000000000000000000602082015250565b600061237e602283611592565b915061238982612322565b604082019050919050565b600060208201905081810360008301526123ad81612371565b9050919050565b7f4f776e61626c653a206e6577206f776e657220697320746865207a65726f206160008201527f6464726573730000000000000000000000000000000000000000000000000000602082015250565b6000612410602683611592565b915061241b826123b4565b604082019050919050565b6000602082019050818103600083015261243f81612403565b9050919050565b7f5061757361626c653a206e6f7420706175736564000000000000000000000000600082015250565b600061247c601483611592565b915061248782612446565b602082019050919050565b600060208201905081810360008301526124ab8161246f565b9050919050565b7f5061757361626c653a2070617573656400000000000000000000000000000000600082015250565b60006124e8601083611592565b91506124f3826124b2565b602082019050919050565b60006020820190508181036000830152612517816124db565b905091905056fea26469706673582212202c8ec9710654d5d6ebeca7f895eded58f617c5abc89e0132e09a2bf3313f757c64736f6c634300080d0033",
  "immutableReferences": {},
  "source": "// SPDX-License-Identifier: MIT\r\npragma solidity ^0.8.13;\r\n\r\n// import SafeMath, Ownable, ReentrancyGuard \r\nimport \"@openzeppelin/contracts/token/ERC20/ERC20.sol\";\r\nimport \"@openzeppelin/contracts/access/Ownable.sol\";\r\nimport \"@openzeppelin/contracts/security/Pausable.sol\";\r\nimport \"@openzeppelin/contracts/security/ReentrancyGuard.sol\";\r\n\r\ncontract ActuateToken is ERC20, Ownable, Pausable, ReentrancyGuard  {\r\n\r\n\r\n    // Token distribution addresses\r\n    address private constant foundationAddress = 0x49B953e39cf8B485635C486B1e33A397b33d5371;\r\n    address private constant healthcareProjectsAddress = 0x9a85fF65498CBdEe424D881fde41E06863c45456;\r\n    address private constant commercializationAddress = 0xfbeedB6481E26e62CFD4640BEf2e38e7f0aFC419;\r\n    address private constant healthConsumersAddress = 0x16E8ee34e17FD7979948a4F27DAEcb0766F0ffA1;\r\n    address private constant publicSaleAddress = 0xd6087cBad7C65CFD1bdB980b6ad912749bAcc38E; // owner\r\n    address private constant healthcareIncentivesAddress = 0xfCE36d464bC8F508063c6dE36745f936b2Dc9B25;\r\n    address private constant educatorIncentivesAddress = 0x7d159171f9c308598c97b94A90330be1d9f8DB49;\r\n    address private constant founderAddress = 0x3401564B69A1D0F9439E6A66122cbcb87DB38d6A;\r\n    address private constant faithOrganizationAddress = 0xc68c4C05E35BF2531A019cc4793AFDcB1cBb5C49;\r\n\r\n    // constructor\r\n        constructor() ERC20(\"Actuate\", \"ACT\") {\r\n        uint256 cap = 33_000_000_000 * 10**uint256(decimals());\r\n\r\n        _mint(foundationAddress, cap * 15 / 100);\r\n        _mint(healthcareProjectsAddress, cap * 20 / 100);\r\n        _mint(commercializationAddress, cap * 10 / 100);\r\n        _mint(healthConsumersAddress, cap * 5 / 100);\r\n        _mint(publicSaleAddress, cap * 10 / 100);\r\n        _mint(healthcareIncentivesAddress, cap * 5 / 100);\r\n        _mint(educatorIncentivesAddress, cap * 5 / 100);\r\n        _mint(founderAddress, cap * 5 / 100);\r\n        _mint(faithOrganizationAddress, cap * 10 / 100);\r\n    }\r\n    // Set the public sale address as the owner's address\r\n    function transferOwnership(address newOwner) public override onlyOwner {\r\n        super.transferOwnership(newOwner);\r\n        _mint(newOwner, balanceOf(publicSaleAddress));\r\n        _burn(publicSaleAddress, balanceOf(publicSaleAddress));\r\n    }\r\n\r\n    // mint new tokens\r\n    function mint(address to, uint256 amount) public onlyOwner {\r\n        _mint(to, amount);\r\n    }\r\n\r\n    // burn tokens\r\n    function burn(address from, uint256 amount) public onlyOwner {\r\n        _burn(from, amount);\r\n    }\r\n\r\n    // airdrop tokens to many addresses\r\n    function airdrop(address[] memory recipients, uint256[] memory amounts) public onlyOwner {\r\n        require(recipients.length == amounts.length, \"ActuateToken: recipients and amounts length mismatch\");\r\n\r\n        for (uint256 i = 0; i < recipients.length; i++) {\r\n            _mint(recipients[i], amounts[i]);\r\n        }\r\n    }\r\n\r\n    // withdraw ether from the contract\r\n    function withdraw() public onlyOwner {\r\n        uint256 balance = address(this).balance;\r\n        payable(msg.sender).transfer(balance);\r\n    }\r\n\r\n    // withdraw tokens from the contract\r\n    function withdrawTokens(address token) public onlyOwner {\r\n        uint256 balance = IERC20(token).balanceOf(address(this));\r\n        IERC20(token).transfer(msg.sender, balance);\r\n    }\r\n\r\n    // pause and unpause \r\n    function pause() external onlyOwner() {\r\n        _pause();\r\n    }\r\n\r\n    function unpause() external onlyOwner() {\r\n        _unpause();\r\n    }\r\n\r\n    function _beforeTokenTransfer(address from, address to, uint256 amount) internal whenNotPaused override {\r\n        super._beforeTokenTransfer(from, to, amount);\r\n    }\r\n\r\n}",
  "sourcePath": "C:\\Users\\Admin\\Desktop\\Freelance Workable\\actuate-token\\contracts\\ActuateToken.sol",
  "compiler": {
    "name": "solc",
    "version": "0.8.13+commit.abaa5c0e.Emscripten.clang"
  },
  "schemaVersion": "3.4.13",
  "updatedAt": "2023-06-26T13:10:49.282Z",
  "devdoc": {
    "kind": "dev",
    "methods": {
      "allowance(address,address)": {
        "details": "See {IERC20-allowance}."
      },
      "approve(address,uint256)": {
        "details": "See {IERC20-approve}. NOTE: If `amount` is the maximum `uint256`, the allowance is not updated on `transferFrom`. This is semantically equivalent to an infinite approval. Requirements: - `spender` cannot be the zero address."
      },
      "balanceOf(address)": {
        "details": "See {IERC20-balanceOf}."
      },
      "decimals()": {
        "details": "Returns the number of decimals used to get its user representation. For example, if `decimals` equals `2`, a balance of `505` tokens should be displayed to a user as `5.05` (`505 / 10 ** 2`). Tokens usually opt for a value of 18, imitating the relationship between Ether and Wei. This is the value {ERC20} uses, unless this function is overridden; NOTE: This information is only used for _display_ purposes: it in no way affects any of the arithmetic of the contract, including {IERC20-balanceOf} and {IERC20-transfer}."
      },
      "decreaseAllowance(address,uint256)": {
        "details": "Atomically decreases the allowance granted to `spender` by the caller. This is an alternative to {approve} that can be used as a mitigation for problems described in {IERC20-approve}. Emits an {Approval} event indicating the updated allowance. Requirements: - `spender` cannot be the zero address. - `spender` must have allowance for the caller of at least `subtractedValue`."
      },
      "increaseAllowance(address,uint256)": {
        "details": "Atomically increases the allowance granted to `spender` by the caller. This is an alternative to {approve} that can be used as a mitigation for problems described in {IERC20-approve}. Emits an {Approval} event indicating the updated allowance. Requirements: - `spender` cannot be the zero address."
      },
      "name()": {
        "details": "Returns the name of the token."
      },
      "owner()": {
        "details": "Returns the address of the current owner."
      },
      "paused()": {
        "details": "Returns true if the contract is paused, and false otherwise."
      },
      "renounceOwnership()": {
        "details": "Leaves the contract without owner. It will not be possible to call `onlyOwner` functions anymore. Can only be called by the current owner. NOTE: Renouncing ownership will leave the contract without an owner, thereby removing any functionality that is only available to the owner."
      },
      "symbol()": {
        "details": "Returns the symbol of the token, usually a shorter version of the name."
      },
      "totalSupply()": {
        "details": "See {IERC20-totalSupply}."
      },
      "transfer(address,uint256)": {
        "details": "See {IERC20-transfer}. Requirements: - `to` cannot be the zero address. - the caller must have a balance of at least `amount`."
      },
      "transferFrom(address,address,uint256)": {
        "details": "See {IERC20-transferFrom}. Emits an {Approval} event indicating the updated allowance. This is not required by the EIP. See the note at the beginning of {ERC20}. NOTE: Does not update the allowance if the current allowance is the maximum `uint256`. Requirements: - `from` and `to` cannot be the zero address. - `from` must have a balance of at least `amount`. - the caller must have allowance for ``from``'s tokens of at least `amount`."
      },
      "transferOwnership(address)": {
        "details": "Transfers ownership of the contract to a new account (`newOwner`). Can only be called by the current owner."
      }
    },
    "version": 1
  },
  "userdoc": {
    "kind": "user",
    "methods": {},
    "version": 1
  }
}